:020000008B294A
:06000600000000000800EC
:0E000C00213083120313FD00FD0B0A280800AB
:10001A000F3083120313FC004730FD00FD0B132839
:0A002A00FC0B132800000000080082
:1000340083120313B61B2028861121288615361B2C
:100044002528061126280615B61A2A2886102B28D4
:100054008614361A2F280610302806142818342837
:10006400061635280612861603208612B6193C2871
:1000740086113D2886153619412806114228061591
:10008400B618462886104728861436184B280610BA
:100094004C280614281850280616512806128616CD
:1000A40003208612281C58280D20592806200800F1
:1000B400063083120313FD00FD0B5E2800000800C8
:1000C4008312031328103108B6001A2028140800DC
:0E00D400831203132B088A002A0882000800FA
:1000E20083120313B101B301B4011030B50004301F
:1000F20034020318A228F03088008030F000700823
:10010200083E84003509F0007008800003200320B7
:100112000F300805F0007008B200700803199C281F
:100122003308B100320803199A28B20CB213B10A8B
:1001320093280430B400B50D35100430B307B40A67
:0801420078283108F0000800E4
:10014A0071207008AD000F300805F0000319AF28C0
:0A015A005A20A8282D08F000080024
:10016400C428803083120313AD00D728C030AD00FB
:10017400D7289430AD00D728D430AD00D7288030AC
:10018400AD00D728831203132D08013A0319B328AD
:100194002D08023A0319B8282D08033A0319BB287D
:1001A4002D08043A0319BE28C1282E03F0002D0897
:1001B400F0077008AD0028147008B6001A20281043
:0A01C4002F08B6001A2028140800C6
:1001CE00F928803083120313AD000C29C030AD0026
:1001DE000C299430AD000C29D430AD000C298030A0
:1001EE00AD000C29831203132D08013A0319E828D8
:1001FE002D08023A0319ED282D08033A0319F028A9
:10020E002D08043A0319F328F6282E03F0002D08C2
:10021E00F0077008AD007008B6001A202810B00163
:10022E0030082F07840000080319252930082F07EE
:10023E0084000008B1006220B00A172928140800B3
:10024E00803083120313F0007008083E8400FF30E4
:04025E008000080014
:100262006A208A110A128000840AAA0A0319AB0AB8
:08027200F003031D312908000F
:10027A0083160313861206120610861006118611BB
:10028A0083128612061286110611861006100D2098
:10029A000D200D20861406148616032086120D20C2
:1002AA008616032086120D208616032086120D203C
:1002BA0006108616032086120D2086160320861243
:1002CA00861086158616032086120D2086110614BE
:1002DA0086160320861206108616032086120D2023
:1002EA0086160320861206148616032086120D200F
:1002FA00061086160320861286150615861406141D
:0C030A008616032086120D20281408001F
:10031600333083120313A000A1013230A200A301DF
:100326003430A400A5013130A600A701AC01272175
:100336000F3083169F0407309C043D210130B60020
:100346001A20D430B6001A200130AD000130AE00BC
:100356002630AF00E7200230AD000130AE0022307B
:10036600AF00E7200130AD001130AE002030AF0005
:10037600E7200230AD001130AE002430AF00E72098
:10038600A901A5207008A90070080319C429F2293B
:100396003130A900232A3230A900232A3330A9009C
:1003A600232A3430A900232A3530A900232A3630DF
:1003B600A900232A3730A900232A3830A900232A86
:1003C6003930A900232A2A30A900232A3030A9006F
:1003D600232A2330A900232A3030A907232A2908F3
:1003E600013A0319CB292908023A0319CE2929080B
:1003F600033A0319D1292908053A0319D4292908EA
:10040600063A0319D7292908073A0319DA292908C8
:10041600093A0319DD2929080A3A0319E0292908A6
:100426000B3A0319E32929080D3A0319E629290885
:100436000E3A0319E92929080F3A0319EC29EF297D
:100446000130AD000A30AE002908AF00B220C32942
:020456002B2A4F
:02400E004A2F37
:00000001FF
