:02000000AB292A
:08000600FA1FF213003008009C
:10000E007B15FB1F11280130F300F201F101F00105
:08001E00FA0DF20CFF3008009E
:0E002600F201F101F001F801F30100300800D1
:100034007B14FB1F2528F201FA1FFF30F200F100A8
:0A004400F000FA0DF20CFF30080086
:10004E00FB14FB1F3128FF30F300F200F100F0002B
:08005E00FA0DF20CFF3008005E
:10006600A0017208031D48287108F2007008F1000B
:10007600F001A0157208031D48287108F200F1016D
:10008600A01120167208031956282008F302031D32
:10009600031C5A280310F21B5E28F00DF10DF20D19
:1000A600F30B4E285A280130FC0013206128023039
:0E00B600FC00072061280430FC000320080035
:0E00C4008312031325088A0024088200080016
:1000D2000E3083120313FD00FD0B6D280000080093
:1000E20083120313FB01FC01FA0173080319B02800
:1000F200F2178E30F302F31B812803198128B328EB
:10010200F309F30A08307302031C9628F300F10D79
:100112007208F100F20108307302031C9628F10DF7
:10012200F1017308031D03109E28730803199E280A
:100132000310F20CF10CF30B99287B1B711CA828FD
:10014200031CA828F10A0319F20AF21BBF28FA1F9E
:10015200C228F209F109F10A0319F20AC228F201CE
:10016200F101C2287B14FB1FC528F201FA1FC52822
:10017200FF30F200F100FA0DF20CC5280130FC004C
:10018200C7280030FC00C728FF30FC00FC08031918
:0E019200CB281A207108F0007208F100080056
:1001A00083160313981690308312980083168717CE
:1001B000071383128C1EDF281A08F000D9280800C4
:1001C000831203139F01C0309F042109F0007008BF
:1001D00083169F051F179F1783122B08F000F00D41
:1001E0007010F00D7010F00D701070089F041F1447
:1001F00069201F151F1DFE280000FA281F101E0869
:10020000F100F00183161E08F0040030F10408002C
:10021000831203137008F8007108F000F101F20175
:10022000F301FB01FC019630F300FA017008F100C4
:0C0230007808F000F801F201332008000B
:10023C00FF3083120313A600FF30A700FF30A80085
:10024C00FF309F01C0309F042109F0007008831615
:0C025C009F051F179F1783121F14080036
:1002680083120313FB017308031D770803198B29F5
:1002780072087606FA007708F3077E30031C4829CF
:10028800F30203188E294B29F302031C91297208E3
:10029800F8007108FC007008FD00F817F617031045
:1002A800F201F101F0011830A0007D1C65297408E5
:1002B800F00775080318750FF10776080318760F0D
:1002C800F207F20CF10CF00CF80CFC0CFD0C03100E
:1002D800A00B5929F21B7529F80DF00DF10DF20D3F
:1002E800F3037B1B701C8729F81F8729F00A031961
:1002F800F10A0319F20A031D8729F20CF10CF00C1C
:10030800F30A03198E29FA1FF213003093290130DA
:100318001320932902302720932904300720000056
:020328000800CB
:10032A0062208A110A128000840AA40A0319A50A03
:08033A00F003031D95290800E2
:10034200831603139818A7290000A12983122B08EA
:040352009900080006
:100356000E220F30831603139F0407309C000130D2
:100366008500333099001815D0200230FB00043088
:10037600FC00BA30FD00FD0BBE29FC0BBE29FB0BB1
:10038600BE2900001E2101308316860083128601D5
:100396000618D129221CD129A314D329FD30A3057F
:1003A600AB01E0200821F630F4002830F5001C30BF
:1003B600F6008130F700342171207008A900710819
:1003C600AA007108013C031DEA2970082C3C031899
:1003D600F029A21CF0292314F229FE30A3050630C9
:1003E600FB001330FC00AD30FD00FD0BF829FC0BC3
:1003F600F829FB0BF829000000002308AB00A12117
:04040600CB29042AD0
:10041C0021308400033083120313F0000A30A4004F
:08042C000230A5009521080033
:020414000F34A3
:02041600FF34B1
:020418000034AE
:02400E004A2F37
:00000001FF
