:0200000038289E
:0E0006008312031321088A00200882000800DC
:1000140003208A110A128000840AA00A0319A10A83
:08002400F003031D0A28080087
:10002C00831203131A08F100981C1E2818121816B4
:06003C007108F00008004D
:10004200831603139816903083129800831687172D
:10005200071383128C1E30281A08F0002A28080081
:0E0062000030831203138C1A0130F0000800E6
:100070003330831603139900181521208316860147
:100080008312860131207008013A031D4B28162087
:0A009000700886004B2842284C2817
:02400E004A2F37
:00000001FF
