:020000002E2AA6
:0E000600F201F101F001F801F30100300800F1
:06001400000000000800DE
:08001A00FA1FF2130030080088
:100022007B15FB1F1B280130F300F201F101F001E7
:08003200FA0DF20CFF3008008A
:10003A00FB14FB1F2728FF30F300F200F100F00049
:08004A00FA0DF20CFF30080072
:100052007B14FB1F3428F201FA1FFF30F200F1007B
:0A006200F000FA0DF20CFF30080068
:10006C0083120313BA01BC01BD011030BE00043071
:10007C003D0203186728F03088008030F0007008CB
:10008C00083E84003E09F000700880000A200A2017
:10009C000F300805F0007008BB00700803196128C8
:1000AC003C08BA003B0803195F28BB0CBB13BA0A07
:1000BC0058280430BD00BE0D3E100430BC07BD0AEC
:0800CC003D283A08F00008008D
:1000D4000E3083120313FD00FD0B6E280000080090
:1000E400063083120313FD00FD0B76280000080080
:1000F400A0017208031D8F287108F2007008F10036
:10010400F001A0157208031D8F287108F200F10197
:10011400A0112016720803199D282008F302031D5C
:10012400031CA1280310F21BA528F00DF10DF20DFC
:10013400F30B9528A1280130FC000320A8280230E5
:0E014400FC001120A8280430FC000D2008004B
:0E015200831203132B088A002A08820008007B
:1001600083120313FB01FC01FA0173080319EF2842
:10017000F2178E30F302F31BC0280319C028F228AF
:10018000F309F30A08307302031CD528F300F10DBC
:100190007208F100F20108307302031CD528F10D3A
:1001A000F1017308031D0310DD2873080319DD280E
:1001B0000310F20CF10CF30BD8287B1B711CE72801
:1001C000031CE728F10A0319F20AF21BFE28FA1FA2
:1001D0000129F209F109F10A0319F20A0129F201D0
:1001E000F10101297B14FB1F0429F201FA1F0429E4
:1001F000FF30F200F100FA0DF20C04290130FC008E
:1002000006290030FC000629FF30FC00FC08031919
:0E0210000A2929207108F0007208F100080088
:10021E0083120313380803178D0083168C130C14E6
:08022E0083120C08F000080027
:100236008316031398169030831298008316871737
:10024600071383128C1E2A291A08F0002429080095
:10025600831203137008F8007108F000F101F2012F
:10026600F301FB01FC019630F300FA017008F1007E
:0C0276007808F000F801F2017A2008007E
:1002820036207008B8000F300805F00003194B291A
:0A029200722044293808F00008002B
:10029C00831603139818542900004E29831238082A
:0402AC0099000800AD
:1002B000803083120313F0007008083E8400FF3082
:0402C00080000800B2
:1002C400FF3083120313A600FF30A700FF30A800FD
:1002D400FF309F01C0309F042109F000700883168D
:0C02E4009F051F179F1783121F140800AE
:1002F00083120313FB017308031D77080319CF2929
:1003000072087606FA007708F3077E30031C8C2902
:10031000F3020318D2298F29F302031CD52972088E
:10032000F8007108FC007008FD00F817F6170310BC
:10033000F201F101F0011830A0007D1CA929740818
:10034000F00775080318750FF10776080318760F84
:10035000F207F20CF10CF00CF80CFC0CFD0C031085
:10036000A00B9D29F21BB929F80DF00DF10DF20D2E
:10037000F3037B1B701CCB29F81FCB29F00A031950
:10038000F10A0319F20A031DCB29F20CF10CF00C4F
:10039000F30A0319D229FA1FF2130030D7290130CA
:1003A0000320D72902301D20D72904301120000056
:0203B000080043
:1003B200831603178C1CDF290000D929831203132B
:1003C200380803178D000313390803178C008316AE
:1003D2008C130C150B08F0008B1355308D00AA30CE
:1003E2008D008C14F01BF7298B13F8298B170C1135
:0203F200080001
:1003F400A9208A110A128000840AAA0A0319AB0AE6
:08040400F003031DFA290800B2
:10040C00831203139F01C0309F042109F000700870
:10041C0083169F051F179F1783123808F000F00DE5
:10042C007010F00D7010F00D701070089F041F14F8
:10043C006A201F151F1D242A0000202A1F101E08C9
:10044C00F100F00183161E08F0040030F1040800DE
:10045C009C23323083120313B8003130B900D921F8
:10046C00333083120313B8003230B900D921343041
:10047C0083120313B8003330B900D92135308312FD
:10048C000313B8003430B900D9210530831203139B
:10049C009F0083169F0107309C000F30850033307E
:1004AC00990018151B218230FC00DD30FD00FD0B7E
:1004BC005D2AFC0B5D2A0000000062210F308316C0
:1004CC008600831286015821061C702A251C702A6E
:1004DC002414712A2410061C772AA51C772AA4142C
:1004EC00782AA41009309F000130B80006222B2175
:1004FC00F630F4002830F5001C30F6008130F7009F
:10050C007821B0207008B4007108B5007108013C66
:10051C00031D922A70082C3C0318982A251D982A32
:10052C002415992A24111A30FC00F830FD00FD0B1B
:10053C009D2AFC0B9D2A0000B80106222B21F630C7
:10054C00F4002830F5001C30F6008130F7007821DB
:10055C00B0207008B6007108B7007108013C031D8B
:10056C00B92A70082C3C0318BF2AA51DBF2AA41554
:10057C00C02AA4112408B8004E210230FB0004301C
:10058C00FC00BA30FD00FD0BC92AFC0BC92AFB0B81
:10059C00C92A0000A412A41B6E2B043023020318DA
:1005AC00542B41217008A90070080319532B022BFE
:1005BC003130A900322B3230A900322B3330A90054
:1005CC00322B3430A900322B3530A900322B363087
:1005DC00A900322B3730A900322B3830A900322B2E
:1005EC003930A900322B2A30A900322B3030A90027
:1005FC00322B2330A900322B2908013A0319DE2AA9
:10060C002908023A0319E12A2908033A0319E42AB2
:10061C002908053A0319E72A2908063A0319EA2A90
:10062C002908073A0319ED2A2908093A0319F02A6F
:10063C0029080A3A0319F32A29080B3A0319F62A4E
:10064C0029080D3A0319F92A29080E3A0319FC2A2C
:10065C0029080F3A0319FF2A2308323EB8000F214C
:10066C00700803132906031D482B2308F000F00D16
:10067C00701070082C3E8400013080000030840A19
:10068C008000522B2308F000F00D701070082C3EE7
:10069C0084008001840A8001A30A6D2BA3012E081B
:1006AC002C05F0002D082F05F1003008F00531085D
:1006BC00F1053208F0053308F105700871040319CF
:1006CC00692BA4176D2BA4132413A41624128F2B9F
:1006DC00A20141217008A2007F2B0130A5068F2BAF
:1006EC000230A5068F2B0430A5068F2B0830A506EB
:1006FC008F2B2208013A0319732B2208023A031993
:10070C00762B2208033A0319792B2208053A031990
:06071C007C2B6A2A902BE1
:1007380021308400053083120313F0009630AA009C
:080748000330AB00FA210800A8
:02072C000F3488
:02072E00003495
:02073000003493
:02073200003491
:02073400FF3490
:02400E004A2F37
:00000001FF
