:020000002E2AA6
:08000600FA1FF213003008009C
:10000E007B15FB1F11280130F300F201F101F00105
:08001E00FA0DF20CFF3008009E
:06002600000000000800CC
:0E002C00F201F101F001F801F30100300800CB
:10003A0083120313BA01BC01BD011030BE000430A3
:10004A003D0203184E28F03088008030F000700816
:10005A00083E84003E09F000700880001320132037
:10006A000F300805F0007008BB0070080319482813
:10007A003C08BA003B0803194628BB0CBB13BA0A52
:10008A003F280430BD00BE0D3E100430BC07BD0A37
:08009A0024283A08F0000800D8
:1000A200063083120313FD00FD0B552800000800E3
:1000B2007B14FB1F6428F201FA1FFF30F200F100EB
:0A00C200F000FA0DF20CFF30080008
:1000CC00FB14FB1F7028FF30F300F200F100F0006E
:0800DC00FA0DF20CFF300800E0
:0E00E400831203132B088A002A0882000800EA
:1000F2000E3083120313FD00FD0B7D280000080063
:10010200A0017208031D96287108F2007008F10020
:10011200F001A0157208031D96287108F200F10182
:10012200A011201672080319A4282008F302031D47
:10013200031CA8280310F21BAC28F00DF10DF20DE0
:10014200F30B9C28A8280130FC001620AF280230AF
:0E015200FC000720AF280430FC00032008004A
:1001600083120313FB01FC01FA0173080319EF2842
:10017000F2178E30F302F31BC0280319C028F228AF
:10018000F309F30A08307302031CD528F300F10DBC
:100190007208F100F20108307302031CD528F10D3A
:1001A000F1017308031D0310DD2873080319DD280E
:1001B0000310F20CF10CF30BD8287B1B711CE72801
:1001C000031CE728F10A0319F20AF21BFE28FA1FA2
:1001D0000129F209F109F10A0319F20A0129F201D0
:1001E000F10101297B14FB1F0429F201FA1F0429E4
:1001F000FF30F200F100FA0DF20C04290130FC008E
:1002000006290030FC000629FF30FC00FC08031919
:0E0210000A2959207108F0007208F100080058
:10021E001D207008B8000F300805F00003191929C9
:0A022E00512012293808F0000800E2
:10023800803083120313F0007008083E8400FF30FA
:04024800800008002A
:10024C00831203139F01C0309F042109F000700832
:10025C0083169F051F179F1783123808F000F00DA7
:10026C007010F00D7010F00D701070089F041F14BA
:10027C0079201F151F1D4429000040291F101E083E
:10028C00F100F00183161E08F0040030F1040800A0
:10029C00831603139818542900004E29831238082A
:0402AC0099000800AD
:1002B000831203137008F8007108F000F101F201D5
:1002C000F301FB01FC019630F300FA017008F10024
:0C02D0007808F000F801F201812008001D
:1002DC00FF3083120313A600FF30A700FF30A800E5
:1002EC00FF309F01C0309F042109F0007008831675
:0C02FC009F051F179F1783121F14080096
:1003080072208A110A128000840AAA0A0319AB0A09
:08031800F003031D8429080015
:1003200083120313FB017308031D77080319E729E0
:1003300072087606FA007708F3077E30031CA429BA
:10034000F3020318EA29A729F302031CED29720816
:10035000F8007108FC007008FD00F817F61703108C
:10036000F201F101F0011830A0007D1CC1297408D0
:10037000F00775080318750FF10776080318760F54
:10038000F207F20CF10CF00CF80CFC0CFD0C031055
:10039000A00BB529F21BD129F80DF00DF10DF20DCE
:1003A000F3037B1B701CE329F81FE329F00A0319F0
:1003B000F10A0319F20A031DE329F20CF10CF00C07
:1003C000F30A0319EA29FA1FF2130030EF2901306A
:1003D0001620EF2902306620EF29043007200000A4
:0203E000080013
:1003E20083120313380803178D0083168C130C1421
:0803F20083120C08F000080062
:1003FA00831603178C1C032A0000FD29831203139A
:10040A00380803178D000313390803178C00831665
:10041A008C130C150B08F0008B1355308D00AA3085
:10042A008D008C14F01B1B2A8B131C2A8B170C11A2
:02043A000800B8
:10043C00831603139816903083129800831687172F
:10044C00071383128C1E2D2A1A08F000272A080085
:10045C00A423323083120313B8003130B900FD21CC
:10046C00333083120313B8003230B900FD2134301D
:10047C0083120313B8003330B900FD2135308312D9
:10048C000313B8003430B900FD2105308312031377
:10049C009F0083169F0107309C000F30850033307E
:1004AC00990018151E228230FC00DD30FD00FD0B7A
:1004BC005D2AFC0B5D2A000000006E210F308316B4
:1004CC008600831286011C212508B8004E210230BB
:1004DC00FB000430FC00BA30FD00FD0B732AFC0B52
:1004EC00732AFB0B732A0000061C802A241C802A0A
:1004FC002514812A2510861C872AA41C872AA5145A
:10050C00882AA51009309F000130B80026215821F7
:10051C00F630F4002830F5001C30F6008130F7007E
:10052C009021B0207008B4007108B5007108013C2E
:10053C00031DA22A70082C3C0318A82A241DA82AE3
:10054C002515A92A25111A30FC00F830FD00FD0BE9
:10055C00AD2AFC0BAD2A0000B80126215821F6303B
:10056C00F4002830F5001C30F6008130F7009021A3
:10057C00B0207008B6007108B7007108013C031D6B
:10058C00C92A70082C3C0318CF2AA41DCF2AA51504
:10059C00D02AA511A512A51B6E2B0430230203181B
:1005AC00542B0F217008A90070080319532B022B30
:1005BC003130A900322B3230A900322B3330A90054
:1005CC00322B3430A900322B3530A900322B363087
:1005DC00A900322B3730A900322B3830A900322B2E
:1005EC003930A900322B2A30A900322B3030A90027
:1005FC00322B2330A900322B2908013A0319DE2AA9
:10060C002908023A0319E12A2908033A0319E42AB2
:10061C002908053A0319E72A2908063A0319EA2A90
:10062C002908073A0319ED2A2908093A0319F02A6F
:10063C0029080A3A0319F32A29080B3A0319F62A4E
:10064C0029080D3A0319F92A29080E3A0319FC2A2C
:10065C0029080F3A0319FF2A2308323EB800F1216A
:10066C00700803132906031D482B2308F000F00D16
:10067C00701070082C3E8400013080000030840A19
:10068C008000522B2308F000F00D701070082C3EE7
:10069C0084008001840A8001A30A6D2BA3012E081B
:1006AC002C05F0002D082F05F1003008F00531085D
:1006BC00F1053208F0053308F105700871040319CF
:1006CC00692BA5176D2BA5132513A5162512982B91
:1006DC00A2010F217008A200842B0130A406982BD4
:1006EC000230A406982B0430A406982B0830A406DC
:1006FC00982BFF30A400A301A501982B2208013AE6
:10070C000319732B2208023A0319762B2208033A99
:10071C000319792B2208053A03197C2B22080F3A6E
:08072C0003197F2B6A2A992BA7
:1007480021308400053083120313F0009F30AA0083
:080758000330AB00842108000E
:02073E000F3476
:02074000003483
:02074200003481
:02074400FF3480
:0207460000347D
:02400E004A2F37
:00000001FF
