:02000000012AD3
:0E000600F201F101F001F801F30100300800F1
:06001400000000000800DE
:08001A00FA1FF2130030080088
:100022007B15FB1F1B280130F300F201F101F001E7
:08003200FA0DF20CFF3008008A
:10003A00A0017208031D32287108F2007008F1004D
:10004A00F001A0157208031D32287108F200F101AF
:10005A00A01120167208031940282008F302031D74
:10006A00031C44280310F21B4828F00DF10DF20D71
:10007A00F30B382844280130FC0003204B280230B7
:0E008A00FC0011204B280430FC000D20080063
:100098007B14FB1F5728F201FA1FFF30F200F10012
:0A00A800F000FA0DF20CFF30080022
:1000B200FB14FB1F6328FF30F300F200F100F00095
:0800C200FA0DF20CFF300800FA
:1000CA000E3083120313FD00FD0B6928000008009F
:1000DA00063083120313FD00FD0B7128000008008F
:1000EA0083120313AF01B101B2011030B30004301F
:1000FA0032020318A628F03088008030F000700819
:10010A00083E84003309F000700880000A200A20A3
:10011A000F300805F0007008B00070080319A02815
:10012A003108AF00300803199E28B00CB013AF0A8B
:10013A0097280430B200B30D33100430B107B20A65
:08014A007C282F08F0000800DA
:0E0152008312031329088A002808820008007F
:1001600083120313FB017308031D77080319072982
:1001700072087606FA007708F3077E30031CC4285D
:10018000F30203180A29C728F302031C0D29720879
:10019000F8007108FC007008FD00F817F61703104E
:1001A000F201F101F0011830A0007D1CE128740873
:1001B000F00775080318750FF10776080318760F16
:1001C000F207F20CF10CF00CF80CFC0CFD0C031017
:1001D000A00BD528F21BF128F80DF00DF10DF20D52
:1001E000F3037B1B701C0329F81F0329F00A031972
:1001F000F10A0319F20A031D0329F20CF10CF00CA9
:10020000F30A03190A29FA1FF21300300F290130EB
:1002100003200F29023059200F290430112000003B
:020220000800D4
:1002220083120313FB01FC01FA017308031950291D
:10023200F2178E30F302F31B2129031921295329C6
:10024200F309F30A08307302031C3629F300F10D97
:100252007208F100F20108307302031C3629F10D15
:10026200F1017308031D03103E29730803193E2987
:100272000310F20CF10CF30B39297B1B711C48297A
:10028200031C4829F10A0319F20AF21B5F29FA1F1B
:100292006229F209F109F10A0319F20A6229F2014B
:1002A200F10162297B14FB1F6529F201FA1F6529FE
:1002B200FF30F200F100FA0DF20C65290130FC006A
:1002C20067290030FC006729FF30FC00FC08031995
:0E02D2006B294C207108F0007208F100080042
:1002E000831203137008F8007108F000F101F201A5
:1002F000F301FB01FC019630F300FA017008F100F4
:0C0300007808F000F801F2011D20080050
:10030C008316031398188C290000862983122E0853
:04031C00990008003C
:10032000831203139F01C0309F042109F00070085D
:1003300083169F051F179F1783122E08F000F00DDC
:100340007010F00D7010F00D701070089F041F14E5
:1003500065201F151F1DAE290000AA291F101E08A9
:10036000F100F00183161E08F0040030F1040800CB
:10037000803083120313F0007008083E8400FF30C1
:0403800080000800F1
:10038400FF3083120313A500FF30A600FF30A7003F
:10039400FF309F01C0309F042109F00070088316CC
:0C03A4009F051F179F1783121F140800ED
:1003B00083160313981690308312980083168717BC
:1003C000071383128C1EE7291A08F000E1290800A0
:1003D000A9208A110A128000840AA80A0319A90A0E
:0803E000F003031DE8290800E9
:1003E80075207008AE000F300805F0000319FE29CB
:0A03F8006D20F7292E08F000080020
:10040200B4220530831203139F0083169F01073025
:100412009C000F308500333099001815D8218230A6
:10042200FC00DD30FD00FD0B142AFC0B142A000039
:100432000000C2210F308316860083128601B82184
:100442000618272A231C272A2414282A2410061CCB
:100452002E2AA31C2E2AA4142F2AA41009309F008E
:100462000130AE0090217021F630F4002830F50002
:100472001C30F6008130F700B02011217008AA006C
:100482007108AB007108013C031D492A70082C3C1D
:1004920003184F2A231D4F2A2415502A24111A30DB
:1004A200FC00F830FD00FD0B542AFC0B542A00001E
:1004B200AE0190217021F630F4002830F5001C3096
:1004C200F6008130F700B02011217008AC007108ED
:1004D200AD007108013C031D702A70082C3C031802
:1004E200762AA31D762AA415772AA4112408AE0021
:1004F20086210230FB000430FC00BA30FD00FD0B07
:10050200802AFC0B802AFB0B802A0000A201F42126
:100512007008A200982A0130A306A82A0230A30676
:10052200A82A0430A306A82A0830A306A82A22086B
:10053200013A03198C2A2208023A03198F2A220847
:10054200033A0319922A2208053A0319952A212A05
:02055200A92AD4
:1005680021308400043083120313F000AF30A80058
:080578000230A900E82108008F
:02055E000F3458
:02056000003465
:02056200FF3464
:02056400003461
:02400E004A2F37
:00000001FF
