:02000000382B9B
:0E000600F201F101F001F801F30100300800F1
:06001400000000000800DE
:08001A00FA1FF2130030080088
:100022007B15FB1F1B280130F300F201F101F001E7
:08003200FA0DF20CFF3008008A
:10003A0083120313BC01BE01BF011030C00004309B
:10004A003F0203184E28F03088008030F000700814
:10005A00083E84004009F000700880000A200A2047
:10006A000F300805F0007008BD0070080319482811
:10007A003E08BC003D0803194628BD0CBD13BC0A46
:10008A003F280430BF00C00D40100430BE07BF0A2D
:08009A0024283C08F0000800D6
:1000A200A0017208031D66287108F2007008F100B1
:1000B200F001A0157208031D66287108F200F10113
:1000C200A01120167208031974282008F302031DD8
:1000D200031C78280310F21B7C28F00DF10DF20DA1
:1000E200F30B6C2878280130FC0003207F280230B3
:0E00F200FC0011207F280430FC000D200800C7
:100100007B14FB1F8B28F201FA1FFF30F200F10075
:0A011000F000FA0DF20CFF300800B9
:06011A00FB15FF30080098
:10012000FB14FB1F9A28FF30F300F200F100F000EF
:08013000FA0DF20CFF3008008B
:10013800063083120313FD00FD0BA0280000080001
:100148000E3083120313FD00FD0BA82800000800E1
:0E015800831203132B088A002A088200080075
:10016600831203133A0803178D0083168C130C149D
:0801760083120C08F0000800E0
:10017E0083120313FA017308031D7A147708031D03
:10018E00FA147A0803190B29033A0319D6287A1898
:10019E00D328F61F09290729F21F072909297208F2
:1001AE008039FA00F21376088039F6137A060319AD
:1001BE00E4287A0803190729092977087302031915
:1001CE00EB28031CFF280329760872020319F22874
:1001DE00031CFF280329750871020319F928031C53
:1001EE00FF2803297408700203190B290318032929
:1001FE00FA08031909290729FA08031907290929F1
:10020E000314080003100800031403150800080067
:10021E00831203139F01C0309F042109F000700860
:10022E0083169F051F179F1783123A08F000F00DD3
:10023E007010F00D7010F00D701070089F041F14E8
:10024E00A4201F151F1D2D29000029291F101E086F
:10025E00F100F00183161E08F0040030F1040800CE
:10026E00831203137408003A031D52297508003ACD
:10027E00031D52297608003A031D52297708003AC9
:10028E00031D5229FF30F000FF30F1007F30F200E5
:10029E00FF30F300ED298312031377080319E129C8
:1002AE0073080319E429720876068039FA00F217EA
:1002BE00F617A0017208F8007108FC007008FD0026
:1002CE007408FD027508031C750FFC027608031CEA
:1002DE00760FF802F801FC01FD01031C7D290310C5
:1002EE00F20CF10CF00CF80C0130A0007708F302C0
:1002FE00031C87297E302007F3070318E7298C2972
:10030E007E302007F307031CEA291830FA07FD0D8B
:10031E00FC0DF80DF00DF10DF20DA00D7408F002AC
:10032E007508031C750FF1027608031C760FF20296
:10033E00760DA004201CA5297D14B0297408F007A1
:10034E0075080318750FF10776080318760AF20779
:10035E007D10FA031F307A05031D8E297B1B7D1C31
:10036E00D7290310F00DF10DF20DA00D7408F00257
:10037E007508031C750FF1027608031C760FF20246
:10038E00760D20040139FD070318FC0A0319F80A3B
:10039E00031DD729F80CFC0CFD0CF30A0319E729F1
:1003AE00FA1FF8137808F2007C08F1007D08F000BF
:1003BE000030EC2901308D20EC2902300320EC298D
:0E03CE0004309020EC290830112000000800B7
:1003DC00831203137008F8007108F000F101F201A8
:1003EC00F301FB01FC019630F300FA017008F100F7
:0C03FC007808F000F801F2015120080020
:100408001D207008BA000F300805F00003190E2AE5
:0A0418009C20072A3A08F0000800B3
:10042200831603139818172A0000112A83123A0818
:040432009900080025
:10043600831603178C1C212A00001B2A8312031320
:100446003A0803178D0003133B0803178C00831625
:100456008C130C150B08F0008B1355308D00AA3049
:100466008D008C14F01B392A8B133A2A8B170C112A
:0204760008007C
:1004780083120313FB017308031D77080319932ADA
:1004880072087606FA007708F3077E30031C502AB4
:10049800F3020318962A532AF302031C992A7208B6
:1004A800F8007108FC007008FD00F817F617031033
:1004B800F201F101F0011830A0007D1C6D2A7408CA
:1004C800F00775080318750FF10776080318760FFB
:1004D800F207F20CF10CF00CF80CFC0CFD0C0310FC
:1004E800A00B612AF21B7D2AF80DF00DF10DF20D1B
:1004F800F3037B1B701C8F2AF81F8F2AF00A03193D
:10050800F10A0319F20A031D8F2AF20CF10CF00C00
:10051800F30A0319962AFA1FF21300309B2A0130B6
:1005280003209B2A023090209B2A043011200000CF
:020538000800B9
:10053A0083120313FB01FC01FA0173080319DC2A75
:10054A00F2178E30F302F31BAD2A0319AD2ADF2A04
:10055A00F309F30A08307302031CC22AF300F10DEF
:10056A007208F100F20108307302031CC22AF10D6D
:10057A00F1017308031D0310CA2A73080319CA2A52
:10058A000310F20CF10CF30BC52A7B1B711CD42A45
:10059A00031CD42AF10A0319F20AF21BEB2AFA1FE6
:1005AA00EE2AF209F109F10A0319F20AEE2AF20116
:1005BA00F101EE2A7B14FB1FF12AF201FA1FF12A3C
:1005CA00FF30F200F100FA0DF20CF12A0130FC00C2
:1005DA00F32A0030FC00F32AFF30FC00FC08031960
:0E05EA00F72A80207108F0007208F100080066
:1005F800FF3083120313A600FF30A700FF30A800C6
:10060800FF309F01C0309F042109F0007008831655
:0C0618009F051F179F1783121F14080076
:100624008316031398169030831298008316871745
:10063400071383128C1E212B1A08F0001B2B0800B1
:10064400AC208A110A128000840AAA0A0319AB0A90
:08065400F003031D222B080036
:10065C00803083120313F0007008083E8400FF30D2
:04066C008000080002
:10067000CA24323083120313BA003130BB001B226C
:10068000333083120313BA003230BB001B223430E4
:1006900083120313BA003330BB001B2235308312A0
:1006A0000313BA003430BB001B220530831203133E
:1006B0009F0083169F0107309C000F308500333068
:1006C0009900181512238230FC00DD30FD00FD0B6F
:1006D000672BFC0B672B00000000FC220F308316F9
:1006E0008600831286012E232508BA0011220230CB
:1006F000FB000430FC00BA30FD00FD0B7D2BFC0B31
:100700007D2BFB0B7D2B0000061C8A2B241C8A2BC7
:1007100025148B2B2510861C912BA41C912BA51422
:10072000922BA51009309F000130BA000F21EE2155
:10073000F630F4002830F5001C30F6008130F70068
:100740003C229D227008B4007108B5007108013C7C
:10075000031DAC2B70082C3C0318B22BA41DB22B2C
:10076000A515B32BA5111A30FC00F830FD00FD0BC8
:10077000B72BFC0BB72B0000BA010F21EE2170083C
:10078000B6007108B7007208B8007308B9000030ED
:10079000F4000030F5004830F6008530F7003C22C8
:1007A0000030F400C030F5007F30F6008830F700EC
:1007B00037217008B6007108B7007208B8007308D6
:1007C000B9000030F4000030F5004830F600843005
:1007D000F700BF20013003180030F0007008031943
:1007E000F52B241DF52B2515F62B2511A512A51B80
:1007F000942C0430230203187A2C04227008A900D8
:1008000070080319792C282C3130A900582C32306B
:10081000A900582C3330A900582C3430A900582C8A
:100820003530A900582C3630A900582C3730A90093
:10083000582C3830A900582C3930A900582C2A30AF
:10084000A900582C3030A900582C2330A900582C6E
:100850002908013A0319042C2908023A0319072C24
:100860002908033A03190A2C2908053A03190D2C03
:100870002908063A0319102C2908073A0319132CE2
:100880002908093A0319162C29080A3A0319192CC0
:1008900029080B3A03191C2C29080D3A03191F2C9F
:1008A00029080E3A0319222C29080F3A0319252C7E
:1008B0002308323EBA00B320700803132906031D33
:1008C0006E2C2308F000F00D701070082C3E840090
:1008D000013080000030840A8000782C2308F0006A
:1008E000F00D701070082C3E84008001840A800195
:1008F000A30A932CA3012E082C05F0002D082F0528
:10090000F1003008F0053108F1053208F005330830
:10091000F1057008710403198F2CA517932CA513EA
:100920002513A5162512BE2CA20104227008A200D0
:10093000AA2C0130A406BE2C0230A406BE2C043022
:10094000A406BE2C0830A406BE2CFF30A400A301D0
:10095000A501BE2C2208013A0319992C2208023A5B
:1009600003199C2C2208033A03199F2C2208053AEC
:100970000319A22C22080F3A0319A52C742BBF2CA3
:1009940021308400053083120313F000C530AA000F
:0809A4000430AB00222308001F
:02098A000F3428
:02098C00003435
:02098E00003433
:02099000FF3432
:0209920000342F
:02400E004A2F37
:00000001FF
