:020000002E2AA6
:0E000600F201F101F001F801F30100300800F1
:06001400000000000800DE
:08001A00FA1FF2130030080088
:100022007B15FB1F1B280130F300F201F101F001E7
:08003200FA0DF20CFF3008008A
:10003A00FB14FB1F2728FF30F300F200F100F00049
:08004A00FA0DF20CFF30080072
:100052007B14FB1F3428F201FA1FFF30F200F1007B
:0A006200F000FA0DF20CFF30080068
:10006C0083120313B301B501B6011030B70004308D
:10007C00360203186728F03088008030F0007008D2
:10008C00083E84003709F000700880000A200A201E
:10009C000F300805F0007008B400700803196128CF
:1000AC003508B300340803195F28B40CB413B30A31
:1000BC0058280430B600B70D37100430B507B60A0F
:0800CC003D283308F000080094
:1000D4000E3083120313FD00FD0B6E280000080090
:1000E400063083120313FD00FD0B76280000080080
:1000F400A0017208031D8F287108F2007008F10036
:10010400F001A0157208031D8F287108F200F10197
:10011400A0112016720803199D282008F302031D5C
:10012400031CA1280310F21BA528F00DF10DF20DFC
:10013400F30B9528A1280130FC000320A8280230E5
:0E014400FC001120A8280430FC000D2008004B
:0E015200831203132C088A002B088200080079
:1001600083120313FB01FC01FA0173080319EF2842
:10017000F2178E30F302F31BC0280319C028F228AF
:10018000F309F30A08307302031CD528F300F10DBC
:100190007208F100F20108307302031CD528F10D3A
:1001A000F1017308031D0310DD2873080319DD280E
:1001B0000310F20CF10CF30BD8287B1B711CE72801
:1001C000031CE728F10A0319F20AF21BFE28FA1FA2
:1001D0000129F209F109F10A0319F20A0129F201D0
:1001E000F10101297B14FB1F0429F201FA1F0429E4
:1001F000FF30F200F100FA0DF20C04290130FC008E
:1002000006290030FC000629FF30FC00FC08031919
:0E0210000A2929207108F0007208F100080088
:10021E0083120313310803178D0083168C130C14ED
:08022E0083120C08F000080027
:100236008316031398169030831298008316871737
:10024600071383128C1E2A291A08F0002429080095
:10025600831203137008F8007108F000F101F2012F
:10026600F301FB01FC019630F300FA017008F1007E
:0C0276007808F000F801F2017A2008007E
:1002820036207008B1000F300805F00003194B2921
:0A029200722044293108F000080032
:10029C00831603139818542900004E298312310831
:0402AC0099000800AD
:1002B000803083120313F0007008083E8400FF3082
:0402C00080000800B2
:1002C400FF3083120313A700FF30A800FF30A900FA
:1002D400FF309F01C0309F042109F000700883168D
:0C02E4009F051F179F1783121F140800AE
:1002F00083120313FB017308031D77080319CF2929
:1003000072087606FA007708F3077E30031C8C2902
:10031000F3020318D2298F29F302031CD52972088E
:10032000F8007108FC007008FD00F817F6170310BC
:10033000F201F101F0011830A0007D1CA929740818
:10034000F00775080318750FF10776080318760F84
:10035000F207F20CF10CF00CF80CFC0CFD0C031085
:10036000A00B9D29F21BB929F80DF00DF10DF20D2E
:10037000F3037B1B701CCB29F81FCB29F00A031950
:10038000F10A0319F20A031DCB29F20CF10CF00C4F
:10039000F30A0319D229FA1FF2130030D7290130CA
:1003A0000320D72902301D20D72904301120000056
:0203B000080043
:1003B200831603178C1CDF290000D929831203132B
:1003C200310803178D000313320803178C008316BC
:1003D2008C130C150B08F0008B1355308D00AA30CE
:1003E2008D008C14F01BF7298B13F8298B170C1135
:0203F200080001
:1003F400A9208A110A128000840AAB0A0319AC0AE4
:08040400F003031DFA290800B2
:10040C00831203139F01C0309F042109F000700870
:10041C0083169F051F179F1783123108F000F00DEC
:10042C007010F00D7010F00D701070089F041F14F8
:10043C006A201F151F1D242A0000202A1F101E08C9
:10044C00F100F00183161E08F0040030F1040800DE
:10045C007423323083120313B1003130B200D9212E
:10046C00333083120313B1003230B200D92134304F
:10047C0083120313B1003330B200D921353083120B
:10048C000313B1003430B200D921053083120313A9
:10049C009F0083169F0107309C000F30850033307E
:1004AC00990018151B218230FC00DD30FD00FD0B7E
:1004BC005D2AFC0B5D2A0000000062210F308316C0
:1004CC0086008312860158210618702A261C702A71
:1004DC002514712A2510061C772AA61C772AA51428
:1004EC00782AA51009309F000130B10006222B217B
:1004FC00F630F4002830F5001C30F6008130F7009F
:10050C007821B0207008AD007108AE007108013C74
:10051C00031D922A70082C3C0318982A261D982A31
:10052C002515992A25111A30FC00F830FD00FD0B19
:10053C009D2AFC0B9D2A0000B10106222B21F630CE
:10054C00F4002830F5001C30F6008130F7007821DB
:10055C00B0207008AF007108B0007108013C031D99
:10056C00B92A70082C3C0318BF2AA61DBF2AA51552
:10057C00C02AA5112508B1004E210230FB00043021
:10058C00FC00BA30FD00FD0BC92AFC0BC92AFB0B81
:10059C00C92A0000A51B452B0430230203183D2B50
:1005AC0041217008AA00FE2A3130AA002E2B3230CD
:1005BC00AA002E2B3330AA002E2B3430AA002E2B5F
:1005CC003530AA002E2B3630AA002E2B3730AA003D
:1005DC002E2B3830AA002E2B3930AA002E2B2A3085
:1005EC00AA002E2B3030AA002E2B2330AA002E2B43
:1005FC002A08013A0319DA2A2A08023A0319DD2AD1
:10060C002A08033A0319E02A2A08053A0319E32AAF
:10061C002A08063A0319E62A2A08073A0319E92A8E
:10062C002A08093A0319EC2A2A080A3A0319EF2A6C
:10063C002A080B3A0319F22A2A080D3A0319F52A4B
:10064C002A080E3A0319F82A2A080F3A0319FB2A2A
:10065C002308323EB1000F21700803132A06031D34
:10066C003A2B0130A4003B2BA401A30A442BA30179
:10067C0024080319432BA517442BA513662BA201A1
:10068C0041217008A200562B0130A606662B0230C1
:10069C00A606662B0430A606662B0830A606662B2B
:1006AC002208013A03194A2B2208023A03194D2B4E
:1006BC002208033A0319502B2208053A0319532B2D
:0406CC006A2A672B04
:1006E80021308400063083120313F0006D30AB0014
:0806F8000330AC00FA210800F8
:0206DA000F34DB
:0206DC000034E8
:0206DE000034E6
:0206E0000134E3
:0206E2000034E2
:0206E400FF34E1
:02400E004A2F37
:00000001FF
