:020000001229C3
:0E000600213083120313FD00FD0B07280800B4
:100014000F3083120313FC004730FD00FD0B102842
:0A002400FC0B10280000000008008B
:06002E00000000000800C4
:1000340083120313A61B2028861121288615261B4C
:100044002528061126280615A61A2A2886102B28E4
:100054008614261A2F28061030280614201834284F
:10006400061635280612861617208612A6193C286D
:1000740086113D28861526194128061142280615A1
:10008400A618462886104728861426184B280610DA
:100094004C280614201850280616512806128616D5
:1000A40017208612201C58280A20592803200800EB
:0E00B4008312031322088A002108820008002C
:1000C20083160313981690308312980083168717AD
:1000D200071383128C1E70281A08F0006A28080081
:1000E200831203131A08F100981C792818121816A3
:0600F2007108F000080097
:0E00F8000030831203138C1A0130F000080050
:100106009528803083120313A300A828C030A300CB
:10011600A8289430A300A828D430A300A8288030AB
:10012600A300A828831203132308013A031984287D
:100136002308023A031989282308033A03198C284D
:100146002308043A03198F2892282403F000230871
:10015600F0077008A30020147008A6001A202010CB
:0A0166002508A6001A202014080046
:100170005A208A110A128000840AA10A0319A20ACD
:08018000F003031DB82808007C
:1001880083160313861206120610861006118611AE
:1001980083128612061286110611861006100A208E
:1001A8000A200A20861406148616172086120A20AA
:1001B8008616172086120A208616172086120A200D
:1001C80006108616172086120A2086161720861211
:1001D800861086158616172086120A2086110614A0
:1001E80086161720861206108616172086120A20F1
:1001F80086161720861206148616172086120A20DD
:1002080006108616172086128615061586140614FB
:0C0218008616172086120A202014080009
:10022400333083160313990018156120831688014F
:1002340083128801C4200130A6001A20D430A600FD
:100244001A200C30A6001A200F3083169F040730A2
:100254009C047C207008013A031D8B2971207008CE
:1002640088000130A3000930A400003008180130D0
:10027400A5003030A50783200130A3000830A40076
:10028400003088180130A5003030A50783200130E4
:10029400A3000730A400003008190130A500303055
:1002A400A50783200130A3000630A400003088197C
:1002B4000130A5003030A50783200130A3000530AC
:1002C400A4000030081A0130A5003030A5078320AF
:1002D4000130A3000430A4000030881A0130A500C6
:1002E4003030A50783200130A3000330A400003080
:1002F400081B0130A5003030A50783200130A3007E
:100304000230A4000030881B0130A5003030A5075E
:0603140083202B298C2937
:02400E004A2F37
:00000001FF
