:02000000402995
:0E000600213083120313FD00FD0B07280800B4
:100014000F3083120313FC004730FD00FD0B102842
:0A002400FC0B10280000000008008B
:06002E00000000000800C4
:1000340083160313D31B21288312861123288312CA
:1000440086158316531B2928831206112B28831225
:1000540006158316D31A3128831286103328831287
:1000640086148316531A3928831206103B288312E8
:1000740006146F183F280616402806128616172005
:1000840086128316D3194928831286114B288312AA
:100094008615831653195128831206115328831287
:1000A40006158316D3185928831286105B288312E9
:1000B400861483165318612883120610632883124A
:1000C40006146F1867280616682806128616172065
:0E00D40086126F1C6F280A2070280320080077
:1000E200831203136F1083165208D3001A206F1461
:0200F200080004
:0E00F400831203136E088A006D088200080054
:10010200831603139816903083129800831687176C
:10011200071383128C1E90281A08F0008A28080000
:10012200831203131A08F100981C99281812181642
:060132007108F000080056
:0E0138000030831203138C1A0130F00008000F
:10014600B528803083160313CE00C828C030CE00F1
:10015600C8289430CE00C828D430CE00C8288030B5
:10016600CE00C828831603134E08013A0319A428A3
:100176004E08023A0319A9284E08033A0319AC2877
:100186004E08043A0319AF28B2284F03F0004E0870
:10019600F0077008CE007008D3001A206F1083167F
:1001A600D10151085007840000080319E3285108BB
:1001B600500784000008D20071208316D10AD42883
:0601C60083126F14080013
:1001CC007A208A110A128000840AED0A0319EE0AB9
:0801DC00F003031DE6280800F2
:1001E4008316031386120612061086100611861152
:1001F40083128612061286110611861006100A2032
:100204000A200A20861406148616172086120A204D
:100214008616172086120A208616172086120A20B0
:1002240006108616172086120A20861617208612B4
:10023400861086158616172086120A208611061443
:1002440086161720861206108616172086120A2094
:1002540086161720861206148616172086120A2080
:10026400061086161720861286150615861406149F
:0C0274008616172086120A206F1408005E
:10028000CC2233308316031399001815812083166E
:10029000880183128801F22001308316D3001A20CE
:1002A000D4308316D3001A200C308316D3001A20C2
:1002B0000F3083169F0407309C049C207008013A7D
:1002C000031D492A912070088800881B692972142F
:1002D0006A297210081B6E2903146F290310721CFF
:1002E0007529031C75297214762972108312881AD5
:1002F0007B2903107C290314721C8229031C822988
:100300007214832972108312081A88290314892908
:100310000310721C8F29031C8F29721490297210EC
:10032000721CAD2901308316CE000130CF0047305A
:10033000D000A3200B30FB002630FC005D30FD0018
:10034000FD0BA029FC0BA029FB0BA029000000003D
:1003500001308316D3001A20492A8312881BB92939
:1003600001308316CE000130CF002030D000A32012
:10037000492A4608031DDD2901308316D3001A20BF
:1003800001308316CE000130CF003A30D000A320D8
:100390000B30FB002630FC005D30FD00FD0BCE294C
:1003A000FC0BCE29FB0BCE29000000000130831688
:1003B000D3001A200130C600492A01308316CE002E
:1003C0000130CF003130D000A32002308316CE00A0
:1003D0000130CF00B730D000A32001308316CE000B
:1003E0001130CF00AC30D000A32002308316CE00F5
:1003F0001130CF00A030D000A320081C082A013003
:100400008316CE000930CF00CA30D000A320102AB6
:1004100001308316CE000930CF00C630D000A320B3
:10042000881C1B2A02308316CE000B30CF00C2304E
:10043000D000A320232A02308316CE000B30CF0039
:100440006130D000A320081D2E2A01308316CE0073
:100450001B30CF005D30D000A320362A0130831638
:10046000CE001B30CF005930D000A320881D412A78
:1004700002308316CE001C30CF006930D000A3209C
:10048000492A02308316CE001C30CF006530D000E0
:06049000A3205D294A2AA9
:10059800203084004D3083120313F0005030ED00FA
:1005A8000230EE00E620A03084002E300313F00065
:0C05B8009D30ED000230EE00E62008004F
:1004A00045344E345434453452342034503441347D
:1004B0005334533457344F34523444343A34203460
:0204C000003406
:1004C20031342E3444344F344F3452343A3420349D
:0204D2000034F4
:1004D400573465346C3463346F346D34653420348C
:0804E4003A34293420340034BD
:0204EC000034DA
:1004EE00573452344F344E34473420345034413420
:1004FE005334533457344F3452344434213421342A
:04050E002034003461
:080512004F3446344634003436
:08051A004F344E34203400344C
:080522004F3446344634003426
:08052A004F344634463400341E
:080532004F344E342034003434
:10053A0034342E3443344F344F344C3449344E34EB
:08054A0047343A342034003438
:1005520033342E34473441345234443445344E34E7
:060562003A34203400349D
:1005680032342E34473441345234413447344534DC
:060578003A342034003487
:08057E004F344E3420340034E8
:080586004F34463446340034C2
:08058E004F344E3420340034D8
:02400E004A2F37
:00000001FF
