:02000000402995
:0E000600213083120313FD00FD0B07280800B4
:100014000F3083120313FC004730FD00FD0B102842
:0A002400FC0B10280000000008008B
:06002E00000000000800C4
:1000340083160313C11B21288312861123288312DC
:1000440086158316411B2928831206112B28831237
:1000540006158316C11A3128831286103328831299
:1000640086148316411A3928831206103B288312FA
:1000740006146F183F280616402806128616172005
:1000840086128316C1194928831286114B288312BC
:100094008615831641195128831206115328831299
:1000A40006158316C1185928831286105B288312FB
:1000B400861483164118612883120610632883125C
:1000C40006146F1867280616682806128616172065
:0E00D40086126F1C6F280A2070280320080077
:1000E200831203136F1083164008C1001A206F1485
:0200F200080004
:0E00F400831603133B088A003A0882000800B6
:10010200831603139816903083129800831687176C
:10011200071383128C1E90281A08F0008A28080000
:10012200831203131A08F100981C99281812181642
:060132007108F000080056
:0E0138000030831203138C1A0130F00008000F
:10014600B528803083160313BC00C828C030BC0015
:10015600C8289430BC00C828D430BC00C8288030D9
:10016600BC00C828831603133C08013A0319A428C7
:100176003C08023A0319A9283C08033A0319AC289B
:100186003C08043A0319AF28B2283D03F0003C08A6
:10019600F0077008BC007008C1001A206F108316A3
:1001A600BF013F083E07840000080319E3283F0803
:1001B6003E0784000008C00071208316BF0AD428B9
:0601C60083126F14080013
:1001CC007A208A110A128000840ABA0A0319BB0A1F
:0801DC00F003031DE6280800F2
:1001E4008316031386120612061086100611861152
:1001F40083128612061286110611861006100A2032
:100204000A200A20861406148616172086120A204D
:100214008616172086120A208616172086120A20B0
:1002240006108616172086120A20861617208612B4
:10023400861086158616172086120A208611061443
:1002440086161720861206108616172086120A2094
:1002540086161720861206148616172086120A2080
:10026400061086161720861286150615861406149F
:0C0274008616172086120A206F1408005E
:1002800070223330831603139900181581208316CA
:10029000880183128801F22001308316C1001A20E0
:1002A000D4308316C1001A200C308316C1001A20E6
:1002B0000F3083169F0407309C049C207008013A7D
:1002C000031D002A912070088800881B70290130C6
:1002D0008316BC000130BD003630BE00A320002ACA
:1002E0002C08031D942901308316C1001A20013007
:1002F0008316BC000130BD002030BE00A3200B30AF
:10030000FB002630FC005D30FD00FD0B8529FC0B59
:100310008529FB0B85290000000001308316C100F0
:100320001A200130AC00002A01308316BC000130D5
:10033000BD002D30BE00A32002308316BC0001306A
:10034000BD00AB30BE00A32001308316BC001130CD
:10035000BD00A030BE00A32002308316BC001130C7
:10036000BD005B30BE00A320081CBF2901308316EE
:10037000BC000930BD00B630BE00A320C729013043
:100380008316BC000930BD006B30BE00A320881C62
:10039000D22902308316BC000B30BD006730BE008E
:1003A000A320DA2902308316BC000B30BD004F3089
:1003B000BE00A320081DE52901308316BC001B30B8
:1003C000BD004B30BE00A320ED2901308316BC00D8
:1003D0001B30BD004730BE00A320881DF829023025
:1003E0008316BC001C30BD005730BE00A320002A7D
:1003F00002308316BC001C30BD005330BE00A32069
:040400005D29012A47
:1004E00020308400473083120313F0000730831656
:1004F000BA000230BB00E620A0308400163003139F
:10050000F0004E308316BA000230BB00E6206730A0
:10051000840008300313F00064308316BA00023000
:10052000BB00E620B630840004300313F0006C30CA
:0C0530008316BA000230BB00E620080071
:10040E00573465346C3463346F346D346534203452
:08041E003A3429342034003483
:020426000034A0
:1004280031342E3444344F344F3452343A34203437
:0204380000348E
:10043A0045346E3474346534723420347034613423
:10044A007334733477346F34723464343A34203406
:02045A0000346C
:08045C004F34463446340034ED
:080464004F344E342034003403
:08046C004F34463446340034DD
:080474004F34463446340034D5
:08047C004F344E3420340034EB
:1004840034342E3443344F344F344C3449344E34A2
:0804940047343A3420340034EF
:10049C0033342E34473441345234443445344E349E
:0604AC003A342034003454
:1004B20032342E3447344134523441344734453493
:0604C2003A34203400343E
:0804C8004F344E34203400349F
:0804D0004F3446344634003479
:0804D8004F344E34203400348F
:02400E004A2F37
:00000001FF
