:02000000402995
:0E000600213083120313FD00FD0B07280800B4
:100014000F3083120313FC004730FD00FD0B102842
:0A002400FC0B10280000000008008B
:06002E00000000000800C4
:1000340083160313D31B21288312861123288312CA
:1000440086158316531B2928831206112B28831225
:1000540006158316D31A3128831286103328831287
:1000640086148316531A3928831206103B288312E8
:1000740006146F183F280616402806128616172005
:1000840086128316D3194928831286114B288312AA
:100094008615831653195128831206115328831287
:1000A40006158316D3185928831286105B288312E9
:1000B400861483165318612883120610632883124A
:1000C40006146F1867280616682806128616172065
:0E00D40086126F1C6F280A2070280320080077
:1000E200831203136F1083165208D3001A206F1461
:0200F200080004
:0E00F400831203136E088A006D088200080054
:10010200831603139816903083129800831687176C
:10011200071383128C1E90281A08F0008A28080000
:10012200831203131A08F100981C99281812181642
:060132007108F000080056
:0E0138000030831203138C1A0130F00008000F
:10014600B528803083160313CE00C828C030CE00F1
:10015600C8289430CE00C828D430CE00C8288030B5
:10016600CE00C828831603134E08013A0319A428A3
:100176004E08023A0319A9284E08033A0319AC2877
:100186004E08043A0319AF28B2284F03F0004E0870
:10019600F0077008CE007008D3001A206F1083167F
:1001A600D10151085007840000080319E3285108BB
:1001B600500784000008D20071208316D10AD42883
:0601C60083126F14080013
:1001CC007A208A110A128000840AED0A0319EE0AB9
:0801DC00F003031DE6280800F2
:1001E4008316031386120612061086100611861152
:1001F40083128612061286110611861006100A2032
:100204000A200A20861406148616172086120A204D
:100214008616172086120A208616172086120A20B0
:1002240006108616172086120A20861617208612B4
:10023400861086158616172086120A208611061443
:1002440086161720861206108616172086120A2094
:1002540086161720861206148616172086120A2080
:10026400061086161720861286150615861406149F
:0C0274008616172086120A206F1408005E
:10028000D02233308316031399001815812083166A
:10029000880183128801F22001308316D3001A20CE
:1002A0000C308316D3001A200F3083169F040730BA
:1002B0009C049C207008013A031D4D2A912070086F
:1002C00088000808003A031D6A29D8010130831606
:1002D000D3001A20881B6E2972146F297210081B14
:1002E0007329031474290310721C7A29031C7A29B8
:1002F00072147B297210881A7F2903108029031435
:10030000721C8629031C8629721487297210831295
:10031000081A8C2903148D290310721C9329031CBD
:100320009329721494297210721CB129013083161A
:10033000CE000130CF004630D000A3200B30FB00B0
:100340002630FC005D30FD00FD0BA429FC0BA42928
:10035000FB0BA4290000000001308316D3001A20F3
:100360004D2A8312881BBD2901308316CE0001302F
:10037000CF003530D000A3204D2A5808031DE129B5
:1003800001308316D3001A2001308316CE000130CD
:10039000CF002930D000A3200B30FB002630FC001A
:1003A0005D30FD00FD0BD229FC0BD229FB0BD229BD
:1003B0000000000001308316D3001A200130D8005D
:1003C0004D2A01308316CE000130CF002030D000FE
:1003D000A32002308316CE000130CF00B730D0000A
:1003E000A32001308316CE001130CF00AC30D000F6
:1003F000A32002308316CE001130CF00A030D000F1
:10040000A320081C0C2A01308316CE000930CF002F
:10041000CA30D000A320142A01308316CE00093040
:10042000CF00C630D000A320881C1F2A02308316BC
:10043000CE000B30CF00C230D000A320272A0230DC
:100440008316CE000B30CF006130D000A320081DF2
:10045000322A01308316CE001B30CF005D30D00031
:10046000A3203A2A01308316CE001B30CF0059302A
:10047000D000A320881D452A02308316CE001C30F0
:10048000CF006930D000A3204D2A02308316CE0061
:0E0490001C30CF006530D000A32059294E2A21
:1005A000203084004D3083120313F0005430ED00EE
:1005B0000230EE00E620A03084002E300313F0005D
:0C05C000A130ED000230EE00E620080043
:1004A80031342E3444344F344F3452343A342034B7
:0204B80000340E
:1004BA00573465346C3463346F346D3465342034A6
:0804CA003A34293420340034D7
:1004D20045344E345434453452342034503441344B
:1004E2005334533457344F34523444343A3420342E
:0204F2000034D4
:1004F400573452344F344E3447342034503441341A
:100504005334533457344F34523444342134213423
:04051400203400345B
:020518000034AD
:08051A004F344634463400342E
:080522004F344E342034003444
:08052A004F344634463400341E
:080532004F3446344634003416
:08053A004F344E34203400342C
:1005420034342E3443344F344F344C3449344E34E3
:0805520047343A342034003430
:10055A0033342E34473441345234443445344E34DF
:06056A003A342034003495
:1005700032342E34473441345234413447344534D4
:060580003A34203400347F
:080586004F344E3420340034E0
:08058E004F34463446340034BA
:080596004F344E3420340034D0
:02400E004A2F37
:00000001FF
